:020000040800F2
:100000000015002089010008C5010008C70100088B
:10001000C9010008CB010008CD0100080000000064
:10002000000000000000000000000000CF010008F8
:10003000D101000800000000D3010008D50100082C
:10004000D7010008D7010008D7010008D701000830
:10005000D7010008D7010008D7010008D701000820
:10006000D7010008D7010008D7010008D701000810
:10007000D7010008D7010008D7010008D701000800
:10008000D7010008D7010008D7010008D7010008F0
:10009000D7010008D7010008D7010008D7010008E0
:1000A000D7010008D7010008D7010008D7010008D0
:1000B000D7010008D7010008D7010008D7010008C0
:1000C000D7010008D7010008D7010008D7010008B0
:1000D000D7010008D7010008D7010008D7010008A0
:1000E000D7010008D7010008D7010008D701000890
:1000F000D7010008D7010008D7010008D701000880
:10010000D7010008D7010008D7010008D70100086F
:10011000D7010008D7010008D7010008D70100085F
:10012000D7010008D7010008D7010008D70100084F
:10013000D7010008D7010008D7010008D70100083F
:10014000D7010008D7010008D7010008D70100082F
:10015000D7010008D7010008D7010008D70100081F
:10016000D7010008D7010008D7010008D70100080F
:10017000D7010008D7010008D701000800000000DF
:10018000D7010008D701000816481749174B9942B4
:100190003CBF50F8042B41F8042BF8D314494FF01E
:1001A00000028B4238BF43F8042BFAD3DFF8440037
:1001B000016841F470010160BFF34F8FBFF36F8F8F
:1001C0000D480047FEE7FEE7FEE7FEE7FEE7FEE735
:1001D000FEE7FEE7FEE7FEE708480949094A0A4B41
:1001E00070470000280400080000002000000020E4
:1001F0000015002088ED00E0150200080000002036
:100200000015002000050020000500207047704701
:100210007047000000F098F84FF03C0400F00AF836
:1002200000F049F8204600F02AF800F044F8013CBC
:10023000F4D1FEE700B54FF0000000F0B0F8204820
:100240004FF01E0401B400F0AAF801BCA0F10800B0
:1002500000F50060013CF5D14FF01E0401B400F040
:100260009EF801BCA0F5006000F50020013CF5D12E
:100270004FF0040000F093F85DF804EB704700B510
:1002800001464FF0000000F08AF86FF0C85010B43B
:100290004FF03C0401B4814200D1094800F07FF8DE
:1002A00001BC013CF6D14FF0010000F078F810BC21
:1002B0005DF804EB704703480138FDD1704700003A
:1002C000FF0000E6F0FF05001C4A116841EA00014A
:1002D000116070474FF000021044026842EA0102C8
:1002E0004FEA410122EA01020260704714480168A6
:1002F00041F00401016070471248016841F48071C7
:10030000016070470E48016821F0040101607047E8
:100310000C48016821F48071016070470848016849
:1003200081F00401016070470648016881F4807122
:10033000016070470138FDD1704700004C10024049
:10034000140400481410004800B54FF01000FFF7E7
:10035000BBFF1F484FF08061FFF7BCFF1C484FF008
:100360008041FFF7B7FF5DF804EB70474FF00801DD
:10037000184A70B44FF400534FF000544FF4004546
:100380004FF0004610F0800F0CBF16601560136030
:1003900014604FEA40000139F4D170BC70474FF04F
:1003A00020010C4A70B44FF400534FF000544FF446
:1003B00000454FF0004610F0004F0CBF166015606E
:1003C000136014604FEA40000139F4D170BC7047EB
:1003D00000100048181000480E4A116841F0010151
:1003E00011600D4A40F69F7111600C4A40F2E731EE
:1003F00011604FF08042116841F001011160084A1C
:10040000116841F001011160064A4FF080511160FE
:100410007047000058100240280000402C000040A7
:080420000C00004000E100E0C7
:0400000508000215D8
:00000001FF
