:020000040800F2
:100000000015002089010008C5010008C70100088B
:10001000C9010008CB010008CD0100080000000064
:10002000000000000000000000000000CF010008F8
:10003000D101000800000000D3010008D50100082C
:10004000D7010008D7010008D7010008D701000830
:10005000D7010008D7010008D7010008D701000820
:10006000D7010008CD020008D7010008D701000819
:10007000D7010008D7010008D7010008D701000800
:10008000D7010008D7010008D7010008D7010008F0
:10009000D7010008D7010008D7010008D7010008E0
:1000A000D7010008D7010008D7010008D7010008D0
:1000B000D7010008D7010008D7010008D7010008C0
:1000C000D7010008D7010008D7010008D7010008B0
:1000D000D7010008D7010008D7010008D7010008A0
:1000E000D7010008D7010008D7010008D701000890
:1000F000D7010008D7010008D7010008D701000880
:10010000D7010008D7010008D7010008D70100086F
:10011000D7010008D7010008D7010008D70100085F
:10012000D7010008D7010008D7010008D70100084F
:10013000D7010008D7010008D7010008D70100083F
:10014000D7010008D7010008D7010008D70100082F
:10015000D7010008D7010008D7010008D70100081F
:10016000D7010008D7010008D7010008D70100080F
:10017000D7010008D7010008D701000800000000DF
:10018000D7010008D701000816481749174B9942B4
:100190003CBF50F8042B41F8042BF8D314494FF01E
:1001A00000028B4238BF43F8042BFAD3DFF8440037
:1001B000016841F470010160BFF34F8FBFF36F8F8F
:1001C0000D480047FEE7FEE7FEE7FEE7FEE7FEE735
:1001D000FEE7FEE7FEE7FEE708480949094A0A4B41
:1001E000704700006C0300080000002000000020A1
:1001F0000015002088ED00E0B1020008000000209A
:100200000015002000050020000500207047704701
:10021000704700001D4A116841F0010111604FF064
:100220009042116840F6FF4021EA00011160184A2F
:10023000116840F2554021EA00014FEA400041EACE
:10024000000111607047134A106800F02F007047DA
:10025000114A116841F001011160104A116821F43E
:10026000E04111600E4A116841F0080111600D4A29
:10027000116821F0080111600B4A116841F0080172
:1002800011600A4A4FF40071116070474C1002402F
:100290000C000048100000486010024008000140B7
:1002A000080401400C0401400004014000E100E0AA
:1002B0004FF0020000F01AF80A484FF0100100F069
:1002C0001BF8FFF7A7FFFFF7C3FFFEE700B500F03D
:1002D00037F85DF804EB044A4FF008011160BFF3F2
:1002E0004F8F704700040048140401401C4A1168F5
:1002F00041EA0001116070474FF0000210440268AB
:1003000042EA01024FEA410122EA0102026070471B
:100310001448016841F00401016070471248016807
:1003200041F48071016070470E48016821F00401BA
:10033000016070470C48016821F4807101607047CA
:100340000848016881F004010160704706480168AF
:1003500081F48071016070470138FDD17047000061
:0C0360004C100240140400481410004827
:04000005080002B13C
:00000001FF
